{
  "_format": "hh-sol-artifact-1",
  "contractName": "MyEpicNft",
  "sourceName": "contracts/MyEpicNFT.sol",
  "abi": [
    {
      "inputs": [],
      "stateMutability": "nonpayable",
      "type": "constructor"
    },
    {
      "anonymous": false,
      "inputs": [
        {
          "indexed": true,
          "internalType": "address",
          "name": "owner",
          "type": "address"
        },
        {
          "indexed": true,
          "internalType": "address",
          "name": "approved",
          "type": "address"
        },
        {
          "indexed": true,
          "internalType": "uint256",
          "name": "tokenId",
          "type": "uint256"
        }
      ],
      "name": "Approval",
      "type": "event"
    },
    {
      "anonymous": false,
      "inputs": [
        {
          "indexed": true,
          "internalType": "address",
          "name": "owner",
          "type": "address"
        },
        {
          "indexed": true,
          "internalType": "address",
          "name": "operator",
          "type": "address"
        },
        {
          "indexed": false,
          "internalType": "bool",
          "name": "approved",
          "type": "bool"
        }
      ],
      "name": "ApprovalForAll",
      "type": "event"
    },
    {
      "anonymous": false,
      "inputs": [
        {
          "indexed": true,
          "internalType": "address",
          "name": "from",
          "type": "address"
        },
        {
          "indexed": true,
          "internalType": "address",
          "name": "to",
          "type": "address"
        },
        {
          "indexed": true,
          "internalType": "uint256",
          "name": "tokenId",
          "type": "uint256"
        }
      ],
      "name": "Transfer",
      "type": "event"
    },
    {
      "inputs": [
        {
          "internalType": "address",
          "name": "to",
          "type": "address"
        },
        {
          "internalType": "uint256",
          "name": "tokenId",
          "type": "uint256"
        }
      ],
      "name": "approve",
      "outputs": [],
      "stateMutability": "nonpayable",
      "type": "function"
    },
    {
      "inputs": [
        {
          "internalType": "address",
          "name": "owner",
          "type": "address"
        }
      ],
      "name": "balanceOf",
      "outputs": [
        {
          "internalType": "uint256",
          "name": "",
          "type": "uint256"
        }
      ],
      "stateMutability": "view",
      "type": "function"
    },
    {
      "inputs": [
        {
          "internalType": "uint256",
          "name": "tokenId",
          "type": "uint256"
        }
      ],
      "name": "getApproved",
      "outputs": [
        {
          "internalType": "address",
          "name": "",
          "type": "address"
        }
      ],
      "stateMutability": "view",
      "type": "function"
    },
    {
      "inputs": [
        {
          "internalType": "address",
          "name": "owner",
          "type": "address"
        },
        {
          "internalType": "address",
          "name": "operator",
          "type": "address"
        }
      ],
      "name": "isApprovedForAll",
      "outputs": [
        {
          "internalType": "bool",
          "name": "",
          "type": "bool"
        }
      ],
      "stateMutability": "view",
      "type": "function"
    },
    {
      "inputs": [],
      "name": "makeAnEpicNFT",
      "outputs": [],
      "stateMutability": "nonpayable",
      "type": "function"
    },
    {
      "inputs": [],
      "name": "name",
      "outputs": [
        {
          "internalType": "string",
          "name": "",
          "type": "string"
        }
      ],
      "stateMutability": "view",
      "type": "function"
    },
    {
      "inputs": [
        {
          "internalType": "uint256",
          "name": "tokenId",
          "type": "uint256"
        }
      ],
      "name": "ownerOf",
      "outputs": [
        {
          "internalType": "address",
          "name": "",
          "type": "address"
        }
      ],
      "stateMutability": "view",
      "type": "function"
    },
    {
      "inputs": [
        {
          "internalType": "uint256",
          "name": "tokenId",
          "type": "uint256"
        }
      ],
      "name": "pickRandomFirstTitle",
      "outputs": [
        {
          "internalType": "string",
          "name": "",
          "type": "string"
        }
      ],
      "stateMutability": "view",
      "type": "function"
    },
    {
      "inputs": [
        {
          "internalType": "uint256",
          "name": "tokenId",
          "type": "uint256"
        }
      ],
      "name": "pickRandomSecondTitle",
      "outputs": [
        {
          "internalType": "string",
          "name": "",
          "type": "string"
        }
      ],
      "stateMutability": "view",
      "type": "function"
    },
    {
      "inputs": [
        {
          "internalType": "uint256",
          "name": "tokenId",
          "type": "uint256"
        }
      ],
      "name": "pickRandomThirdTitle",
      "outputs": [
        {
          "internalType": "string",
          "name": "",
          "type": "string"
        }
      ],
      "stateMutability": "view",
      "type": "function"
    },
    {
      "inputs": [
        {
          "internalType": "address",
          "name": "from",
          "type": "address"
        },
        {
          "internalType": "address",
          "name": "to",
          "type": "address"
        },
        {
          "internalType": "uint256",
          "name": "tokenId",
          "type": "uint256"
        }
      ],
      "name": "safeTransferFrom",
      "outputs": [],
      "stateMutability": "nonpayable",
      "type": "function"
    },
    {
      "inputs": [
        {
          "internalType": "address",
          "name": "from",
          "type": "address"
        },
        {
          "internalType": "address",
          "name": "to",
          "type": "address"
        },
        {
          "internalType": "uint256",
          "name": "tokenId",
          "type": "uint256"
        },
        {
          "internalType": "bytes",
          "name": "_data",
          "type": "bytes"
        }
      ],
      "name": "safeTransferFrom",
      "outputs": [],
      "stateMutability": "nonpayable",
      "type": "function"
    },
    {
      "inputs": [
        {
          "internalType": "address",
          "name": "operator",
          "type": "address"
        },
        {
          "internalType": "bool",
          "name": "approved",
          "type": "bool"
        }
      ],
      "name": "setApprovalForAll",
      "outputs": [],
      "stateMutability": "nonpayable",
      "type": "function"
    },
    {
      "inputs": [
        {
          "internalType": "bytes4",
          "name": "interfaceId",
          "type": "bytes4"
        }
      ],
      "name": "supportsInterface",
      "outputs": [
        {
          "internalType": "bool",
          "name": "",
          "type": "bool"
        }
      ],
      "stateMutability": "view",
      "type": "function"
    },
    {
      "inputs": [],
      "name": "symbol",
      "outputs": [
        {
          "internalType": "string",
          "name": "",
          "type": "string"
        }
      ],
      "stateMutability": "view",
      "type": "function"
    },
    {
      "inputs": [
        {
          "internalType": "uint256",
          "name": "tokenId",
          "type": "uint256"
        }
      ],
      "name": "tokenURI",
      "outputs": [
        {
          "internalType": "string",
          "name": "",
          "type": "string"
        }
      ],
      "stateMutability": "view",
      "type": "function"
    },
    {
      "inputs": [
        {
          "internalType": "address",
          "name": "from",
          "type": "address"
        },
        {
          "internalType": "address",
          "name": "to",
          "type": "address"
        },
        {
          "internalType": "uint256",
          "name": "tokenId",
          "type": "uint256"
        }
      ],
      "name": "transferFrom",
      "outputs": [],
      "stateMutability": "nonpayable",
      "type": "function"
    }
  ],
  "bytecode": "0x6080604052604051806104c0016040528061049c8152602001620044f761049c9139600890805190602001906200003892919062000945565b506040518061014001604052806040518060400160405280600a81526020017f4d7973746572696f75730000000000000000000000000000000000000000000081525081526020016040518060400160405280600781526020017f526566696e65640000000000000000000000000000000000000000000000000081525081526020016040518060400160405280600881526020017f4172726f67616e7400000000000000000000000000000000000000000000000081525081526020016040518060400160405280600881526020017f546f6c6572616e7400000000000000000000000000000000000000000000000081525081526020016040518060400160405280600881526020017f466561726c65737300000000000000000000000000000000000000000000000081525081526020016040518060400160405280600581526020017f476f6f667900000000000000000000000000000000000000000000000000000081525081526020016040518060400160405280600a81526020017f416e616c79746963616c0000000000000000000000000000000000000000000081525081526020016040518060400160405280600581526020017f4c6f79616c00000000000000000000000000000000000000000000000000000081525081526020016040518060400160405280600881526020017f41676e6f7374696300000000000000000000000000000000000000000000000081525081526020016040518060400160405280600881526020017f496e747265706964000000000000000000000000000000000000000000000000815250815250600990600a620002a3929190620009d6565b506040518061014001604052806040518060400160405280600481526020017f4c6f72640000000000000000000000000000000000000000000000000000000081525081526020016040518060400160405280600681526020017f4b6e69676874000000000000000000000000000000000000000000000000000081525081526020016040518060400160405280600681526020017f4d6173746572000000000000000000000000000000000000000000000000000081525081526020016040518060400160405280600681526020017f5072696e6365000000000000000000000000000000000000000000000000000081525081526020016040518060400160405280600981526020017f50726f746563746f72000000000000000000000000000000000000000000000081525081526020016040518060400160405280600781526020017f4361707461696e0000000000000000000000000000000000000000000000000081525081526020016040518060400160405280600a81526020017f53746f726d626c6164650000000000000000000000000000000000000000000081525081526020016040518060400160405280600781526020017f41646d6972616c0000000000000000000000000000000000000000000000000081525081526020016040518060400160405280600781526020017f47656e6572616c0000000000000000000000000000000000000000000000000081525081526020016040518060400160405280600881526020017f417373617373696e000000000000000000000000000000000000000000000000815250815250600a90600a6200050e929190620009d6565b506040518061014001604052806040518060400160405280600881526020017f4461776e7374617200000000000000000000000000000000000000000000000081525081526020016040518060400160405280600881526020017f576869746572756e00000000000000000000000000000000000000000000000081525081526020016040518060400160405280600a81526020017f53746f726d6c616e64730000000000000000000000000000000000000000000081525081526020016040518060400160405280600881526020017f50696c746f76657200000000000000000000000000000000000000000000000081525081526020016040518060400160405280600481526020017f5a61756e0000000000000000000000000000000000000000000000000000000081525081526020016040518060400160405280600581526020017f446f726e6500000000000000000000000000000000000000000000000000000081525081526020016040518060400160405280600781526020017f56616c797269610000000000000000000000000000000000000000000000000081525081526020016040518060400160405280600881526020017f5461746f6f696e6500000000000000000000000000000000000000000000000081525081526020016040518060400160405280600981526020017f4d616e64616c6f7265000000000000000000000000000000000000000000000081525081526020016040518060400160405280600581526020017f4e61626f6f000000000000000000000000000000000000000000000000000000815250815250600b90600a62000779929190620009d6565b503480156200078757600080fd5b506040518060400160405280600981526020017f546573744775696c6400000000000000000000000000000000000000000000008152506040518060400160405280600981526020017f546573744775696c64000000000000000000000000000000000000000000000081525081600090805190602001906200080c92919062000945565b5080600190805190602001906200082592919062000945565b505050620008736040518060400160405280601e81526020017f54686973206973206d79204e465420636f6e74726163742e20576f61682100008152506200087960201b620012131760201c565b62000bf7565b620009198160405160240162000890919062000b0b565b6040516020818303038152906040527f41304fac000000000000000000000000000000000000000000000000000000007bffffffffffffffffffffffffffffffffffffffffffffffffffffffff19166020820180517bffffffffffffffffffffffffffffffffffffffffffffffffffffffff83818316178352505050506200091c60201b60201c565b50565b60008151905060006a636f6e736f6c652e6c6f679050602083016000808483855afa5050505050565b828054620009539062000b81565b90600052602060002090601f016020900481019282620009775760008555620009c3565b82601f106200099257805160ff1916838001178555620009c3565b82800160010185558215620009c3579182015b82811115620009c2578251825591602001919060010190620009a5565b5b509050620009d2919062000a3d565b5090565b82805482825590600052602060002090810192821562000a2a579160200282015b8281111562000a2957825182908051906020019062000a1892919062000945565b5091602001919060010190620009f7565b5b50905062000a39919062000a5c565b5090565b5b8082111562000a5857600081600090555060010162000a3e565b5090565b5b8082111562000a80576000818162000a76919062000a84565b5060010162000a5d565b5090565b50805462000a929062000b81565b6000825580601f1062000aa6575062000ac7565b601f01602090049060005260206000209081019062000ac6919062000a3d565b5b50565b600062000ad78262000b2f565b62000ae3818562000b3a565b935062000af581856020860162000b4b565b62000b008162000be6565b840191505092915050565b6000602082019050818103600083015262000b27818462000aca565b905092915050565b600081519050919050565b600082825260208201905092915050565b60005b8381101562000b6b57808201518184015260208101905062000b4e565b8381111562000b7b576000848401525b50505050565b6000600282049050600182168062000b9a57607f821691505b6020821081141562000bb15762000bb062000bb7565b5b50919050565b7f4e487b7100000000000000000000000000000000000000000000000000000000600052602260045260246000fd5b6000601f19601f8301169050919050565b6138f08062000c076000396000f3fe608060405234801561001057600080fd5b506004361061010b5760003560e01c806370a08231116100a2578063b88d4fde11610071578063b88d4fde146102dc578063c87b56dd146102f8578063de9d132f14610328578063e7777eaf14610332578063e985e9c5146103625761010b565b806370a082311461024257806395d89b4114610272578063a22cb46514610290578063a8d7a60f146102ac5761010b565b806323b872dd116100de57806323b872dd146101aa5780633b0bc842146101c657806342842e0e146101f65780636352211e146102125761010b565b806301ffc9a71461011057806306fdde0314610140578063081812fc1461015e578063095ea7b31461018e575b600080fd5b61012a600480360381019061012591906124a6565b610392565b6040516101379190613166565b60405180910390f35b610148610474565b6040516101559190613181565b60405180910390f35b610178600480360381019061017391906124f8565b610506565b60405161018591906130ff565b60405180910390f35b6101a860048036038101906101a3919061246a565b61058b565b005b6101c460048036038101906101bf9190612364565b6106a3565b005b6101e060048036038101906101db91906124f8565b610703565b6040516101ed9190613181565b60405180910390f35b610210600480360381019061020b9190612364565b610821565b005b61022c600480360381019061022791906124f8565b610841565b60405161023991906130ff565b60405180910390f35b61025c600480360381019061025791906122ff565b6108f3565b60405161026991906133e1565b60405180910390f35b61027a6109ab565b6040516102879190613181565b60405180910390f35b6102aa60048036038101906102a5919061242e565b610a3d565b005b6102c660048036038101906102c191906124f8565b610bbe565b6040516102d39190613181565b60405180910390f35b6102f660048036038101906102f191906123b3565b610cdc565b005b610312600480360381019061030d91906124f8565b610d3e565b60405161031f9190613181565b60405180910390f35b610330610e90565b005b61034c600480360381019061034791906124f8565b611061565b6040516103599190613181565b60405180910390f35b61037c60048036038101906103779190612328565b61117f565b6040516103899190613166565b60405180910390f35b60007f80ac58cd000000000000000000000000000000000000000000000000000000007bffffffffffffffffffffffffffffffffffffffffffffffffffffffff1916827bffffffffffffffffffffffffffffffffffffffffffffffffffffffff1916148061045d57507f5b5e139f000000000000000000000000000000000000000000000000000000007bffffffffffffffffffffffffffffffffffffffffffffffffffffffff1916827bffffffffffffffffffffffffffffffffffffffffffffffffffffffff1916145b8061046d575061046c826112ac565b5b9050919050565b60606000805461048390613680565b80601f01602080910402602001604051908101604052809291908181526020018280546104af90613680565b80156104fc5780601f106104d1576101008083540402835291602001916104fc565b820191906000526020600020905b8154815290600101906020018083116104df57829003601f168201915b5050505050905090565b600061051182611316565b610550576040517f08c379a000000000000000000000000000000000000000000000000000000000815260040161054790613341565b60405180910390fd5b6004600083815260200190815260200160002060009054906101000a900473ffffffffffffffffffffffffffffffffffffffff169050919050565b600061059682610841565b90508073ffffffffffffffffffffffffffffffffffffffff168373ffffffffffffffffffffffffffffffffffffffff161415610607576040517f08c379a00000000000000000000000000000000000000000000000000000000081526004016105fe906133a1565b60405180910390fd5b8073ffffffffffffffffffffffffffffffffffffffff16610626611382565b73ffffffffffffffffffffffffffffffffffffffff16148061065557506106548161064f611382565b61117f565b5b610694576040517f08c379a000000000000000000000000000000000000000000000000000000000815260040161068b90613281565b60405180910390fd5b61069e838361138a565b505050565b6106b46106ae611382565b82611443565b6106f3576040517f08c379a00000000000000000000000000000000000000000000000000000000081526004016106ea906133c1565b60405180910390fd5b6106fe838383611521565b505050565b606060006107376107138461177d565b60405160200161072391906130dd565b60405160208183030381529060405261192a565b90506009805490508161074a91906136fb565b905060098181548110610786577f4e487b7100000000000000000000000000000000000000000000000000000000600052603260045260246000fd5b90600052602060002001805461079b90613680565b80601f01602080910402602001604051908101604052809291908181526020018280546107c790613680565b80156108145780601f106107e957610100808354040283529160200191610814565b820191906000526020600020905b8154815290600101906020018083116107f757829003601f168201915b5050505050915050919050565b61083c83838360405180602001604052806000815250610cdc565b505050565b6000806002600084815260200190815260200160002060009054906101000a900473ffffffffffffffffffffffffffffffffffffffff169050600073ffffffffffffffffffffffffffffffffffffffff168173ffffffffffffffffffffffffffffffffffffffff1614156108ea576040517f08c379a00000000000000000000000000000000000000000000000000000000081526004016108e1906132c1565b60405180910390fd5b80915050919050565b60008073ffffffffffffffffffffffffffffffffffffffff168273ffffffffffffffffffffffffffffffffffffffff161415610964576040517f08c379a000000000000000000000000000000000000000000000000000000000815260040161095b906132a1565b60405180910390fd5b600360008373ffffffffffffffffffffffffffffffffffffffff1673ffffffffffffffffffffffffffffffffffffffff168152602001908152602001600020549050919050565b6060600180546109ba90613680565b80601f01602080910402602001604051908101604052809291908181526020018280546109e690613680565b8015610a335780601f10610a0857610100808354040283529160200191610a33565b820191906000526020600020905b815481529060010190602001808311610a1657829003601f168201915b5050505050905090565b610a45611382565b73ffffffffffffffffffffffffffffffffffffffff168273ffffffffffffffffffffffffffffffffffffffff161415610ab3576040517f08c379a0000000000000000000000000000000000000000000000000000000008152600401610aaa90613241565b60405180910390fd5b8060056000610ac0611382565b73ffffffffffffffffffffffffffffffffffffffff1673ffffffffffffffffffffffffffffffffffffffff16815260200190815260200160002060008473ffffffffffffffffffffffffffffffffffffffff1673ffffffffffffffffffffffffffffffffffffffff16815260200190815260200160002060006101000a81548160ff0219169083151502179055508173ffffffffffffffffffffffffffffffffffffffff16610b6d611382565b73ffffffffffffffffffffffffffffffffffffffff167f17307eab39ab6107e8899845ad3d59bd9653f200f220920489ca2b5937696c3183604051610bb29190613166565b60405180910390a35050565b60606000610bf2610bce8461177d565b604051602001610bde91906130bb565b60405160208183030381529060405261192a565b9050600a8054905081610c0591906136fb565b9050600a8181548110610c41577f4e487b7100000000000000000000000000000000000000000000000000000000600052603260045260246000fd5b906000526020600020018054610c5690613680565b80601f0160208091040260200160405190810160405280929190818152602001828054610c8290613680565b8015610ccf5780601f10610ca457610100808354040283529160200191610ccf565b820191906000526020600020905b815481529060010190602001808311610cb257829003601f168201915b5050505050915050919050565b610ced610ce7611382565b83611443565b610d2c576040517f08c379a0000000000000000000000000000000000000000000000000000000008152600401610d23906133c1565b60405180910390fd5b610d388484848461195d565b50505050565b6060610d4982611316565b610d88576040517f08c379a0000000000000000000000000000000000000000000000000000000008152600401610d7f90613321565b60405180910390fd5b6000600660008481526020019081526020016000208054610da890613680565b80601f0160208091040260200160405190810160405280929190818152602001828054610dd490613680565b8015610e215780601f10610df657610100808354040283529160200191610e21565b820191906000526020600020905b815481529060010190602001808311610e0457829003601f168201915b505050505090506000610e326119b9565b9050600081511415610e48578192505050610e8b565b600082511115610e7d578082604051602001610e65929190612f67565b60405160208183030381529060405292505050610e8b565b610e86846119d0565b925050505b919050565b6000610e9c6007611a77565b90506000610ea982610703565b90506000610eb683610bbe565b90506000610ec384611061565b90506000838383604051602001610edc93929190612f8b565b604051602081830303815290604052905060006008858585604051602001610f079493929190612fbc565b60405160208183030381529060405290506000610f4c83610f2784611a85565b604051602001610f38929190613032565b604051602081830303815290604052611a85565b9050600081604051602001610f619190613077565b6040516020818303038152906040529050610fb06040518060400160405280601581526020017f0a2d2d2d2d2d2d2d2d2d2d2d2d2d2d2d2d2d2d2d2d0000000000000000000000815250611213565b610fd881604051602001610fc49190613010565b604051602081830303815290604052611213565b6110166040518060400160405280601581526020017f2d2d2d2d2d2d2d2d2d2d2d2d2d2d2d2d2d2d2d2d0a0000000000000000000000815250611213565b6110203389611c43565b61102a8882611c61565b6110346007611cd5565b611057604051806060016040528060258152602001613856602591398933611ceb565b5050505050505050565b606060006110956110718461177d565b6040516020016110819190613099565b60405160208183030381529060405261192a565b9050600b80549050816110a891906136fb565b9050600b81815481106110e4577f4e487b7100000000000000000000000000000000000000000000000000000000600052603260045260246000fd5b9060005260206000200180546110f990613680565b80601f016020809104026020016040519081016040528092919081815260200182805461112590613680565b80156111725780601f1061114757610100808354040283529160200191611172565b820191906000526020600020905b81548152906001019060200180831161115557829003601f168201915b5050505050915050919050565b6000600560008473ffffffffffffffffffffffffffffffffffffffff1673ffffffffffffffffffffffffffffffffffffffff16815260200190815260200160002060008373ffffffffffffffffffffffffffffffffffffffff1673ffffffffffffffffffffffffffffffffffffffff16815260200190815260200160002060009054906101000a900460ff16905092915050565b6112a9816040516024016112279190613181565b6040516020818303038152906040527f41304fac000000000000000000000000000000000000000000000000000000007bffffffffffffffffffffffffffffffffffffffffffffffffffffffff19166020820180517bffffffffffffffffffffffffffffffffffffffffffffffffffffffff8381831617835250505050611d8a565b50565b60007f01ffc9a7000000000000000000000000000000000000000000000000000000007bffffffffffffffffffffffffffffffffffffffffffffffffffffffff1916827bffffffffffffffffffffffffffffffffffffffffffffffffffffffff1916149050919050565b60008073ffffffffffffffffffffffffffffffffffffffff166002600084815260200190815260200160002060009054906101000a900473ffffffffffffffffffffffffffffffffffffffff1673ffffffffffffffffffffffffffffffffffffffff1614159050919050565b600033905090565b816004600083815260200190815260200160002060006101000a81548173ffffffffffffffffffffffffffffffffffffffff021916908373ffffffffffffffffffffffffffffffffffffffff160217905550808273ffffffffffffffffffffffffffffffffffffffff166113fd83610841565b73ffffffffffffffffffffffffffffffffffffffff167f8c5be1e5ebec7d5bd14f71427d1e84f3dd0314c0f7b2291e5b200ac8c7c3b92560405160405180910390a45050565b600061144e82611316565b61148d576040517f08c379a000000000000000000000000000000000000000000000000000000000815260040161148490613261565b60405180910390fd5b600061149883610841565b90508073ffffffffffffffffffffffffffffffffffffffff168473ffffffffffffffffffffffffffffffffffffffff16148061150757508373ffffffffffffffffffffffffffffffffffffffff166114ef84610506565b73ffffffffffffffffffffffffffffffffffffffff16145b806115185750611517818561117f565b5b91505092915050565b8273ffffffffffffffffffffffffffffffffffffffff1661154182610841565b73ffffffffffffffffffffffffffffffffffffffff1614611597576040517f08c379a000000000000000000000000000000000000000000000000000000000815260040161158e90613361565b60405180910390fd5b600073ffffffffffffffffffffffffffffffffffffffff168273ffffffffffffffffffffffffffffffffffffffff161415611607576040517f08c379a00000000000000000000000000000000000000000000000000000000081526004016115fe90613221565b60405180910390fd5b611612838383611db3565b61161d60008261138a565b6001600360008573ffffffffffffffffffffffffffffffffffffffff1673ffffffffffffffffffffffffffffffffffffffff168152602001908152602001600020600082825461166d9190613596565b925050819055506001600360008473ffffffffffffffffffffffffffffffffffffffff1673ffffffffffffffffffffffffffffffffffffffff16815260200190815260200160002060008282546116c491906134b5565b92505081905550816002600083815260200190815260200160002060006101000a81548173ffffffffffffffffffffffffffffffffffffffff021916908373ffffffffffffffffffffffffffffffffffffffff160217905550808273ffffffffffffffffffffffffffffffffffffffff168473ffffffffffffffffffffffffffffffffffffffff167fddf252ad1be2c89b69c2b068fc378daa952ba7f163c4a11628f55a4df523b3ef60405160405180910390a4505050565b606060008214156117c5576040518060400160405280600181526020017f30000000000000000000000000000000000000000000000000000000000000008152509050611925565b600082905060005b600082146117f75780806117e0906136b2565b915050600a826117f0919061350b565b91506117cd565b60008167ffffffffffffffff811115611839577f4e487b7100000000000000000000000000000000000000000000000000000000600052604160045260246000fd5b6040519080825280601f01601f19166020018201604052801561186b5781602001600182028036833780820191505090505b5090505b6000851461191e576001826118849190613596565b9150600a8561189391906136fb565b603061189f91906134b5565b60f81b8183815181106118db577f4e487b7100000000000000000000000000000000000000000000000000000000600052603260045260246000fd5b60200101907effffffffffffffffffffffffffffffffffffffffffffffffffffffffffffff1916908160001a905350600a85611917919061350b565b945061186f565b8093505050505b919050565b60008160405160200161193d9190612f50565b6040516020818303038152906040528051906020012060001c9050919050565b611968848484611521565b61197484848484611db8565b6119b3576040517f08c379a00000000000000000000000000000000000000000000000000000000081526004016119aa906131e1565b60405180910390fd5b50505050565b606060405180602001604052806000815250905090565b60606119db82611316565b611a1a576040517f08c379a0000000000000000000000000000000000000000000000000000000008152600401611a1190613381565b60405180910390fd5b6000611a246119b9565b90506000815111611a445760405180602001604052806000815250611a6f565b80611a4e8461177d565b604051602001611a5f929190612f67565b6040516020818303038152906040525b915050919050565b600081600001549050919050565b60606000825190506000811415611aae5760405180602001604052806000815250915050611c3e565b60006003600283611abf91906134b5565b611ac9919061350b565b6004611ad5919061353c565b90506000602082611ae691906134b5565b67ffffffffffffffff811115611b25577f4e487b7100000000000000000000000000000000000000000000000000000000600052604160045260246000fd5b6040519080825280601f01601f191660200182016040528015611b575781602001600182028036833780820191505090505b509050600060405180606001604052806040815260200161387b604091399050600181016020830160005b86811015611bfb5760038101905062ffffff818a015116603f8160121c168401518060081b905060ff603f83600c1c1686015116810190508060081b905060ff603f8360061c1686015116810190508060081b905060ff603f831686015116810190508060e01b90508084526004840193505050611b82565b506003860660018114611c155760028114611c2557611c30565b613d3d60f01b6002830352611c30565b603d60f81b60018303525b508484525050819450505050505b919050565b611c5d828260405180602001604052806000815250611f4f565b5050565b611c6a82611316565b611ca9576040517f08c379a0000000000000000000000000000000000000000000000000000000008152600401611ca0906132e1565b60405180910390fd5b80600660008481526020019081526020016000209080519060200190611cd092919061218b565b505050565b6001816000016000828254019250508190555050565b611d85838383604051602401611d03939291906131a3565b6040516020818303038152906040527fe3849f79000000000000000000000000000000000000000000000000000000007bffffffffffffffffffffffffffffffffffffffffffffffffffffffff19166020820180517bffffffffffffffffffffffffffffffffffffffffffffffffffffffff8381831617835250505050611d8a565b505050565b60008151905060006a636f6e736f6c652e6c6f679050602083016000808483855afa5050505050565b505050565b6000611dd98473ffffffffffffffffffffffffffffffffffffffff16611faa565b15611f42578373ffffffffffffffffffffffffffffffffffffffff1663150b7a02611e02611382565b8786866040518563ffffffff1660e01b8152600401611e24949392919061311a565b602060405180830381600087803b158015611e3e57600080fd5b505af1925050508015611e6f57506040513d601f19601f82011682018060405250810190611e6c91906124cf565b60015b611ef2573d8060008114611e9f576040519150601f19603f3d011682016040523d82523d6000602084013e611ea4565b606091505b50600081511415611eea576040517f08c379a0000000000000000000000000000000000000000000000000000000008152600401611ee1906131e1565b60405180910390fd5b805181602001fd5b63150b7a0260e01b7bffffffffffffffffffffffffffffffffffffffffffffffffffffffff1916817bffffffffffffffffffffffffffffffffffffffffffffffffffffffff191614915050611f47565b600190505b949350505050565b611f598383611fbd565b611f666000848484611db8565b611fa5576040517f08c379a0000000000000000000000000000000000000000000000000000000008152600401611f9c906131e1565b60405180910390fd5b505050565b600080823b905060008111915050919050565b600073ffffffffffffffffffffffffffffffffffffffff168273ffffffffffffffffffffffffffffffffffffffff16141561202d576040517f08c379a000000000000000000000000000000000000000000000000000000000815260040161202490613301565b60405180910390fd5b61203681611316565b15612076576040517f08c379a000000000000000000000000000000000000000000000000000000000815260040161206d90613201565b60405180910390fd5b61208260008383611db3565b6001600360008473ffffffffffffffffffffffffffffffffffffffff1673ffffffffffffffffffffffffffffffffffffffff16815260200190815260200160002060008282546120d291906134b5565b92505081905550816002600083815260200190815260200160002060006101000a81548173ffffffffffffffffffffffffffffffffffffffff021916908373ffffffffffffffffffffffffffffffffffffffff160217905550808273ffffffffffffffffffffffffffffffffffffffff16600073ffffffffffffffffffffffffffffffffffffffff167fddf252ad1be2c89b69c2b068fc378daa952ba7f163c4a11628f55a4df523b3ef60405160405180910390a45050565b82805461219790613680565b90600052602060002090601f0160209004810192826121b95760008555612200565b82601f106121d257805160ff1916838001178555612200565b82800160010185558215612200579182015b828111156121ff5782518255916020019190600101906121e4565b5b50905061220d9190612211565b5090565b5b8082111561222a576000816000905550600101612212565b5090565b600061224161223c8461342d565b6133fc565b90508281526020810184848401111561225957600080fd5b61226484828561363e565b509392505050565b60008135905061227b816137f9565b92915050565b60008135905061229081613810565b92915050565b6000813590506122a581613827565b92915050565b6000815190506122ba81613827565b92915050565b600082601f8301126122d157600080fd5b81356122e184826020860161222e565b91505092915050565b6000813590506122f98161383e565b92915050565b60006020828403121561231157600080fd5b600061231f8482850161226c565b91505092915050565b6000806040838503121561233b57600080fd5b60006123498582860161226c565b925050602061235a8582860161226c565b9150509250929050565b60008060006060848603121561237957600080fd5b60006123878682870161226c565b93505060206123988682870161226c565b92505060406123a9868287016122ea565b9150509250925092565b600080600080608085870312156123c957600080fd5b60006123d78782880161226c565b94505060206123e88782880161226c565b93505060406123f9878288016122ea565b925050606085013567ffffffffffffffff81111561241657600080fd5b612422878288016122c0565b91505092959194509250565b6000806040838503121561244157600080fd5b600061244f8582860161226c565b925050602061246085828601612281565b9150509250929050565b6000806040838503121561247d57600080fd5b600061248b8582860161226c565b925050602061249c858286016122ea565b9150509250929050565b6000602082840312156124b857600080fd5b60006124c684828501612296565b91505092915050565b6000602082840312156124e157600080fd5b60006124ef848285016122ab565b91505092915050565b60006020828403121561250a57600080fd5b6000612518848285016122ea565b91505092915050565b61252a816135ca565b82525050565b612539816135dc565b82525050565b600061254a82613472565b6125548185613488565b935061256481856020860161364d565b61256d816137e8565b840191505092915050565b60006125838261347d565b61258d8185613499565b935061259d81856020860161364d565b6125a6816137e8565b840191505092915050565b60006125bc8261347d565b6125c681856134aa565b93506125d681856020860161364d565b80840191505092915050565b600081546125ef81613680565b6125f981866134aa565b94506001821660008114612614576001811461262557612658565b60ff19831686528186019350612658565b61262e8561345d565b60005b8381101561265057815481890152600182019150602081019050612631565b838801955050505b50505092915050565b600061266e6025836134aa565b91507f68747470733a2f2f6e6674707265766965772e30786465762e636f6465732f3f60008301527f636f64653d0000000000000000000000000000000000000000000000000000006020830152602582019050919050565b60006126d4603283613499565b91507f4552433732313a207472616e7366657220746f206e6f6e20455243373231526560008301527f63656976657220696d706c656d656e74657200000000000000000000000000006020830152604082019050919050565b600061273a601c83613499565b91507f4552433732313a20746f6b656e20616c7265616479206d696e746564000000006000830152602082019050919050565b600061277a602483613499565b91507f4552433732313a207472616e7366657220746f20746865207a65726f2061646460008301527f72657373000000000000000000000000000000000000000000000000000000006020830152604082019050919050565b60006127e0601983613499565b91507f4552433732313a20617070726f766520746f2063616c6c6572000000000000006000830152602082019050919050565b6000612820602c83613499565b91507f4552433732313a206f70657261746f7220717565727920666f72206e6f6e657860008301527f697374656e7420746f6b656e00000000000000000000000000000000000000006020830152604082019050919050565b6000612886600d836134aa565b91507f3c2f746578743e3c2f7376673e000000000000000000000000000000000000006000830152600d82019050919050565b60006128c6603883613499565b91507f4552433732313a20617070726f76652063616c6c6572206973206e6f74206f7760008301527f6e6572206e6f7220617070726f76656420666f7220616c6c00000000000000006020830152604082019050919050565b600061292c602a83613499565b91507f4552433732313a2062616c616e636520717565727920666f7220746865207a6560008301527f726f2061646472657373000000000000000000000000000000000000000000006020830152604082019050919050565b6000612992602983613499565b91507f4552433732313a206f776e657220717565727920666f72206e6f6e657869737460008301527f656e7420746f6b656e00000000000000000000000000000000000000000000006020830152604082019050919050565b60006129f8602e83613499565b91507f45524337323155524953746f726167653a2055524920736574206f66206e6f6e60008301527f6578697374656e7420746f6b656e0000000000000000000000000000000000006020830152604082019050919050565b6000612a5e6002836134aa565b91507f227d0000000000000000000000000000000000000000000000000000000000006000830152600282019050919050565b6000612a9e602083613499565b91507f4552433732313a206d696e7420746f20746865207a65726f20616464726573736000830152602082019050919050565b6000612ade603183613499565b91507f45524337323155524953746f726167653a2055524920717565727920666f722060008301527f6e6f6e6578697374656e7420746f6b656e0000000000000000000000000000006020830152604082019050919050565b6000612b44602c83613499565b91507f4552433732313a20617070726f76656420717565727920666f72206e6f6e657860008301527f697374656e7420746f6b656e00000000000000000000000000000000000000006020830152604082019050919050565b6000612baa602983613499565b91507f4552433732313a207472616e73666572206f6620746f6b656e2074686174206960008301527f73206e6f74206f776e00000000000000000000000000000000000000000000006020830152604082019050919050565b6000612c10602f83613499565b91507f4552433732314d657461646174613a2055524920717565727920666f72206e6f60008301527f6e6578697374656e7420746f6b656e00000000000000000000000000000000006020830152604082019050919050565b6000612c76600a836134aa565b91507f7b226e616d65223a2022000000000000000000000000000000000000000000006000830152600a82019050919050565b6000612cb6602183613499565b91507f4552433732313a20617070726f76616c20746f2063757272656e74206f776e6560008301527f72000000000000000000000000000000000000000000000000000000000000006020830152604082019050919050565b6000612d1c601d836134aa565b91507f646174613a6170706c69636174696f6e2f6a736f6e3b6261736536342c0000006000830152601d82019050919050565b6000612d5c6002836134aa565b91507f4f660000000000000000000000000000000000000000000000000000000000006000830152600282019050919050565b6000612d9c603183613499565b91507f4552433732313a207472616e736665722063616c6c6572206973206e6f74206f60008301527f776e6572206e6f7220617070726f7665640000000000000000000000000000006020830152604082019050919050565b6000612e02600b836134aa565b91507f54484952445f5449544c450000000000000000000000000000000000000000006000830152600b82019050919050565b6000612e42600c836134aa565b91507f5345434f4e445f5449544c4500000000000000000000000000000000000000006000830152600c82019050919050565b6000612e826059836134aa565b91507f222c20226465736372697074696f6e223a2022596f757220616476656e74757260008301527f65722066726f6d20746865204775696c642e222c2022696d616765223a20226460208301527f6174613a696d6167652f7376672b786d6c3b6261736536342c000000000000006040830152605982019050919050565b6000612f0e600b836134aa565b91507f46495253545f5449544c450000000000000000000000000000000000000000006000830152600b82019050919050565b612f4a81613634565b82525050565b6000612f5c82846125b1565b915081905092915050565b6000612f7382856125b1565b9150612f7f82846125b1565b91508190509392505050565b6000612f9782866125b1565b9150612fa382856125b1565b9150612faf82846125b1565b9150819050949350505050565b6000612fc882876125e2565b9150612fd482866125b1565b9150612fe082856125b1565b9150612feb82612d4f565b9150612ff782846125b1565b915061300282612879565b915081905095945050505050565b600061301b82612661565b915061302782846125b1565b915081905092915050565b600061303d82612c69565b915061304982856125b1565b915061305482612e75565b915061306082846125b1565b915061306b82612a51565b91508190509392505050565b600061308282612d0f565b915061308e82846125b1565b915081905092915050565b60006130a482612df5565b91506130b082846125b1565b915081905092915050565b60006130c682612e35565b91506130d282846125b1565b915081905092915050565b60006130e882612f01565b91506130f482846125b1565b915081905092915050565b60006020820190506131146000830184612521565b92915050565b600060808201905061312f6000830187612521565b61313c6020830186612521565b6131496040830185612f41565b818103606083015261315b818461253f565b905095945050505050565b600060208201905061317b6000830184612530565b92915050565b6000602082019050818103600083015261319b8184612578565b905092915050565b600060608201905081810360008301526131bd8186612578565b90506131cc6020830185612f41565b6131d96040830184612521565b949350505050565b600060208201905081810360008301526131fa816126c7565b9050919050565b6000602082019050818103600083015261321a8161272d565b9050919050565b6000602082019050818103600083015261323a8161276d565b9050919050565b6000602082019050818103600083015261325a816127d3565b9050919050565b6000602082019050818103600083015261327a81612813565b9050919050565b6000602082019050818103600083015261329a816128b9565b9050919050565b600060208201905081810360008301526132ba8161291f565b9050919050565b600060208201905081810360008301526132da81612985565b9050919050565b600060208201905081810360008301526132fa816129eb565b9050919050565b6000602082019050818103600083015261331a81612a91565b9050919050565b6000602082019050818103600083015261333a81612ad1565b9050919050565b6000602082019050818103600083015261335a81612b37565b9050919050565b6000602082019050818103600083015261337a81612b9d565b9050919050565b6000602082019050818103600083015261339a81612c03565b9050919050565b600060208201905081810360008301526133ba81612ca9565b9050919050565b600060208201905081810360008301526133da81612d8f565b9050919050565b60006020820190506133f66000830184612f41565b92915050565b6000604051905081810181811067ffffffffffffffff82111715613423576134226137b9565b5b8060405250919050565b600067ffffffffffffffff821115613448576134476137b9565b5b601f19601f8301169050602081019050919050565b60008190508160005260206000209050919050565b600081519050919050565b600081519050919050565b600082825260208201905092915050565b600082825260208201905092915050565b600081905092915050565b60006134c082613634565b91506134cb83613634565b9250827fffffffffffffffffffffffffffffffffffffffffffffffffffffffffffffffff03821115613500576134ff61372c565b5b828201905092915050565b600061351682613634565b915061352183613634565b9250826135315761353061375b565b5b828204905092915050565b600061354782613634565b915061355283613634565b9250817fffffffffffffffffffffffffffffffffffffffffffffffffffffffffffffffff048311821515161561358b5761358a61372c565b5b828202905092915050565b60006135a182613634565b91506135ac83613634565b9250828210156135bf576135be61372c565b5b828203905092915050565b60006135d582613614565b9050919050565b60008115159050919050565b60007fffffffff0000000000000000000000000000000000000000000000000000000082169050919050565b600073ffffffffffffffffffffffffffffffffffffffff82169050919050565b6000819050919050565b82818337600083830152505050565b60005b8381101561366b578082015181840152602081019050613650565b8381111561367a576000848401525b50505050565b6000600282049050600182168061369857607f821691505b602082108114156136ac576136ab61378a565b5b50919050565b60006136bd82613634565b91507fffffffffffffffffffffffffffffffffffffffffffffffffffffffffffffffff8214156136f0576136ef61372c565b5b600182019050919050565b600061370682613634565b915061371183613634565b9250826137215761372061375b565b5b828206905092915050565b7f4e487b7100000000000000000000000000000000000000000000000000000000600052601160045260246000fd5b7f4e487b7100000000000000000000000000000000000000000000000000000000600052601260045260246000fd5b7f4e487b7100000000000000000000000000000000000000000000000000000000600052602260045260246000fd5b7f4e487b7100000000000000000000000000000000000000000000000000000000600052604160045260246000fd5b6000601f19601f8301169050919050565b613802816135ca565b811461380d57600080fd5b50565b613819816135dc565b811461382457600080fd5b50565b613830816135e8565b811461383b57600080fd5b50565b61384781613634565b811461385257600080fd5b5056fe416e204e465420772f20494420257320686173206265656e206d696e74656420746f2025734142434445464748494a4b4c4d4e4f505152535455565758595a6162636465666768696a6b6c6d6e6f707172737475767778797a303132333435363738392b2fa26469706673582212200514953772b847da3f7af38d83c96007d30593773109a9938c0aad8f2783460064736f6c634300080000333c73766720786d6c6e733d27687474703a2f2f7777772e77332e6f72672f323030302f73766727207072657365727665417370656374526174696f3d27784d696e594d696e206d656574272076696577426f783d273020302033303020333030273e203c7374796c653e202e62617365207b2066696c6c3a2077686974653b20666f6e742d66616d696c793a2073657269663b20666f6e742d73697a653a20313470783b207d203c2f7374796c653e203c726563742077696474683d273130302527206865696768743d2731303025272066696c6c3d27626c61636b272f3e203c7465787420783d273530252720793d273130252720636c6173733d27626173652720646f6d696e616e742d626173656c696e653d276d6964646c652720746578742d616e63686f723d276d6964646c65273e6861743c2f746578743e203c7465787420783d273530252720793d273235252720636c6173733d27626173652720646f6d696e616e742d626173656c696e653d276d6964646c652720746578742d616e63686f723d276d6964646c65273e616d756c65743c2f746578743e203c7465787420783d273530252720793d273430252720636c6173733d27626173652720646f6d696e616e742d626173656c696e653d276d6964646c652720746578742d616e63686f723d276d6964646c65273e626f64793c2f746578743e203c7465787420783d273235252720793d273330252720636c6173733d27626173652720646f6d696e616e742d626173656c696e653d276d6964646c652720746578742d616e63686f723d276d6964646c65273e776561706f6e3c2f746578743e203c7465787420783d273735252720793d273330252720636c6173733d27626173652720646f6d696e616e742d626173656c696e653d276d6964646c652720746578742d616e63686f723d276d6964646c65273e736869656c643c2f746578743e203c7465787420783d273330252720793d273433252720636c6173733d27626173652720646f6d696e616e742d626173656c696e653d276d6964646c652720746578742d616e63686f723d276d6964646c65273e6c6566742068616e643c2f746578743e203c7465787420783d273730252720793d273433252720636c6173733d27626173652720646f6d696e616e742d626173656c696e653d276d6964646c652720746578742d616e63686f723d276d6964646c65273e72696768742068616e643c2f746578743e203c7465787420783d273530252720793d273535252720636c6173733d27626173652720646f6d696e616e742d626173656c696e653d276d6964646c652720746578742d616e63686f723d276d6964646c65273e70616e74733c2f746578743e203c7465787420783d273530252720793d273730252720636c6173733d27626173652720646f6d696e616e742d626173656c696e653d276d6964646c652720746578742d616e63686f723d276d6964646c65273e626f6f74733c2f746578743e203c7465787420783d273530252720793d273930252720636c6173733d27626173652720646f6d696e616e742d626173656c696e653d276d6964646c652720746578742d616e63686f723d276d6964646c65273e",
  "linkReferences": {},
  "deployedLinkReferences": {}
}